A118139011A16SPROGRES1.014                                                                                                                                                                      
A318139011A16096                                                                                                                                                                                
A5X181394435AutoLegalS:TestForeName                 F01018981390114241B                                   126989                                                                                
A5C181397127Castongvay:Pretesh Samuel               M070700181310117155XN9262317042566090486450             6989                                                                                
A5C181391240Castineiras:Yakem Michelle              F010201181390151240HX926231406237                       6989                                                                                
A7181390000005010416                                                                                                                                                                            
A91813900000070000001                                                                                                                                                                           
